:020000020000FC
:1000000014C0189518951895189518951895189561
:100010001895189559D00F9382D006B300FF02C0EF
:1000200001E0400F6FD00F9118950FE90DBF11D06F
:100030008EE187BB8FE188BB41E011270EE11027DD
:1000400018BB6DD006B300FDF9CF69D001E04027A1
:10005000F5CF80E0082E80E0182E80E0282E80E08A
:10006000382E80E0482E80E0582E80E0682E80E018
:10007000782E80E0882E80E0982E80E0A82E80E008
:10008000B82E80E0C82E80E0D82E80E0E82E80E0F8
:10009000F82E00E010E020E030E040E050E060E0CA
:1000A00070E080E090E0A0E0B0E0C0E0D0E0E0E010
:1000B000F0E0E0E6F0E000270193F030E9F7EE39F8
:1000C000D9F7EE27FF270895F8940F9300E00093E7
:1000D0003B0000933A00009315000F9108950F9391
:1000E00002E000933900002702BF01E003BF32E1C4
:1000F000242F0F9108950F93002702BF00E003BF44
:100100000F9108950F9300E200933B0001E00093EC
:100110001500002700933A000F91789408951F93DB
:100120002F933F93142F2FEF3FEF3150204010407B
:0C013000E0F73F912F911F9188940895F3
:00000001FF
