:020000020000FC
:1000000019C018951895189518951895189518955C
:100010001895189518951895189518951895189578
:100020001895189518951895189518951895189568
:10003000189518950FEF0DBF02E0EFEFEF93EF91DA
:10004000EAB9EFEFEF93EF91E8B9E0E01E2FE6B1E8
:10005000EF936F911BB90CD0E12FEF5FEF931F91DE
:10006000E6B1EF936F93EF91FF91EF17C9F7F2CFDE
:10007000EEE02E2FEFEF3E2FEFEF4E2FE42FE1506B
:10008000EF934F914030D1F7E32FE150EF933F9141
:100090003030A1F7E22FE150EF932F91203071F72C
:0200A0000895C1
:00000001FF