:020000020000FC
:1000000019C018951895189518951895189518955C
:100010001895189518951895189518951895189578
:100020001895189518951895189518951895189568
:10003000189518950FEF0DBF02E0EFEFEF93EF91DA
:10004000E4B9E0E01E2F15B90ED0E0E0EF93EF9198
:10005000E5B909D01F93E1E0EF93EF91FF91FE0F17
:10006000FF931F91F0CFEFEF2E2FEFEF3E2F3F9337
:10007000E1E0EF93EF91FF91FE1BFF933F91303052
:10008000B1F72F93E1E0EF93EF91FF91FE1BFF9308
:080090002F91203061F7089563
:00000001FF