:020000020000FC
:1000000019C018951895189518951895189518955C
:100010001895189518951895189518951895189578
:100020001895189518951895189518951895189568
:10003000189518950FEF0DBF02E0EFEFEF93EF91DA
:10004000E4B9E0E01E2F1F93EF91E5B90ED0E0E098
:10005000EF93EF91E5B909D01F93E1E0EF93EF91B2
:10006000FF91FE0FFF931F91EECFEFEF2E2FEFEFDB
:100070003E2F3F93E1E0EF93EF91FF91FE1BFF9343
:100080003F913F93E0E0EF93EF91FF91EF1789F7F6
:100090002F93E1E0EF93EF91FF91FE1BFF932F91E0
:1000A0002F93E0E0EF93EF91FF91EF1711F7089591
:00000001FF