:020000020000FC
:1000000026C018951895189515C018951895189527
:100010001895189518951895189518951895189578
:100020001895189518951895189518951895189568
:10003000189518952DD00F9317D006B103FF03C064
:1000400040FD479547950F914BB92BD018950FEF71
:100050000DBF02E00EBF25D08FEF8AB980E087B9CF
:100060008FE788B912D0FFCF1F932F933F9314E1EE
:100070001A9539F02FEF2A95D9F33FEF3A95F1F71A
:10008000FACF3F912F911F910895EEDF41E008953F
:10009000F8940F9300E00093680000936C000F91B8
:1000A00008950F9302E0009368000FEF00936C0037
:0C00B000002700931B000F917894089526
:00000001FF
