:020000020000FC
:100000004EC018951895189515C0189518951895FF
:1000100018951895189532C0189518951895189533
:1000200022C0189518951895189518951895189533
:100030001895189500270093680050FF0FC05E7F49
:10004000C895402D002021F4F1E0ECE0C895402D4A
:100050000027E395F01F4BB962E302C0516060E5F1
:1000600004E005BD18956A9509F01895002705BDAF
:1000700000931B0002E0009368001895C895402D7E
:10008000002021F4F1E0E6E1C895402D0027E3953A
:10009000F01F4BB9009385000093840018950FEF73
:1000A0000DBF02E00EBFEFEFF0E000270193F33049
:1000B000E9F7E030D9F7EEE1FF27EA95F083E9F7B9
:1000C000002707B908E008B90FEF0AB902E000936A
:1000D000680008E000936C0001E000936E0002E00D
:1000E00000936F0009E70093890005E900938800F9
:1000F00004E00093810041E04BB9F1E0E6E178943F
:1001000000000000000000000000FFCF0102040812
:1001100010204080000081422418182442810000F1
:00000001FF
