:020000020000FC
:1000000019C018951895189518951895189518955C
:100010001895189518951895189518951895189578
:100020001895189518951895189518951895189568
:10003000189518950FEF0DBF02E0EFEFEF93EF91DA
:10004000E4B9EFEFEF93EF91EBB9EFEF1E2F15B996
:1000500005D0E12FE150EF931F91F9CFEEE02E2F65
:10006000EFEF3E2FEFEF4E2FE42FE150EF934F9144
:100070004030D1F7E32FE150EF933F913030A1F7BB
:0E008000E22FE150EF932F91203071F7089599
:00000001FF